{
  "_format": "hh-sol-artifact-1",
  "contractName": "BuyCoffee",
  "sourceName": "contracts/BuyCoffee.sol",
  "abi": [
    {
      "inputs": [],
      "stateMutability": "payable",
      "type": "constructor"
    },
    {
      "inputs": [
        {
          "internalType": "address",
          "name": "profile",
          "type": "address"
        }
      ],
      "name": "buymeacoffee",
      "outputs": [],
      "stateMutability": "payable",
      "type": "function"
    },
    {
      "inputs": [
        {
          "internalType": "uint256",
          "name": "",
          "type": "uint256"
        }
      ],
      "name": "coffee",
      "outputs": [
        {
          "internalType": "address",
          "name": "profile",
          "type": "address"
        },
        {
          "internalType": "address",
          "name": "supporter",
          "type": "address"
        },
        {
          "internalType": "uint256",
          "name": "amount",
          "type": "uint256"
        },
        {
          "internalType": "uint256",
          "name": "timestamp",
          "type": "uint256"
        }
      ],
      "stateMutability": "view",
      "type": "function"
    },
    {
      "inputs": [],
      "name": "getAllCoffee",
      "outputs": [
        {
          "components": [
            {
              "internalType": "address",
              "name": "profile",
              "type": "address"
            },
            {
              "internalType": "address",
              "name": "supporter",
              "type": "address"
            },
            {
              "internalType": "uint256",
              "name": "amount",
              "type": "uint256"
            },
            {
              "internalType": "uint256",
              "name": "timestamp",
              "type": "uint256"
            }
          ],
          "internalType": "struct BuyCoffee.Coffee[]",
          "name": "",
          "type": "tuple[]"
        }
      ],
      "stateMutability": "view",
      "type": "function"
    },
    {
      "inputs": [
        {
          "internalType": "address",
          "name": "profile",
          "type": "address"
        }
      ],
      "name": "getCoffeeByProfile",
      "outputs": [
        {
          "components": [
            {
              "internalType": "address",
              "name": "profile",
              "type": "address"
            },
            {
              "internalType": "address",
              "name": "supporter",
              "type": "address"
            },
            {
              "internalType": "uint256",
              "name": "amount",
              "type": "uint256"
            },
            {
              "internalType": "uint256",
              "name": "timestamp",
              "type": "uint256"
            }
          ],
          "internalType": "struct BuyCoffee.Coffee[]",
          "name": "",
          "type": "tuple[]"
        }
      ],
      "stateMutability": "view",
      "type": "function"
    },
    {
      "inputs": [],
      "name": "getContractBalance",
      "outputs": [
        {
          "internalType": "uint256",
          "name": "",
          "type": "uint256"
        }
      ],
      "stateMutability": "view",
      "type": "function"
    },
    {
      "inputs": [
        {
          "internalType": "address",
          "name": "profile",
          "type": "address"
        }
      ],
      "name": "getProfileBalance",
      "outputs": [
        {
          "internalType": "uint256",
          "name": "",
          "type": "uint256"
        }
      ],
      "stateMutability": "view",
      "type": "function"
    },
    {
      "inputs": [
        {
          "internalType": "address",
          "name": "",
          "type": "address"
        }
      ],
      "name": "profiles",
      "outputs": [
        {
          "internalType": "address",
          "name": "wallet_address",
          "type": "address"
        },
        {
          "internalType": "uint256",
          "name": "balance",
          "type": "uint256"
        }
      ],
      "stateMutability": "view",
      "type": "function"
    },
    {
      "inputs": [
        {
          "internalType": "address",
          "name": "profile",
          "type": "address"
        }
      ],
      "name": "setProfile",
      "outputs": [],
      "stateMutability": "nonpayable",
      "type": "function"
    },
    {
      "inputs": [],
      "name": "total_contract_balance",
      "outputs": [
        {
          "internalType": "uint256",
          "name": "",
          "type": "uint256"
        }
      ],
      "stateMutability": "view",
      "type": "function"
    },
    {
      "inputs": [],
      "name": "withdrawProfileBalance",
      "outputs": [],
      "stateMutability": "nonpayable",
      "type": "function"
    }
  ],
  "bytecode": "0x60806040526200004f6040518060400160405280601981526020017f496e697469616c697a6520536d61727420436f6e7472616374000000000000008152506200011d60201b62000db51760201c565b33600260003373ffffffffffffffffffffffffffffffffffffffff1673ffffffffffffffffffffffffffffffffffffffff16815260200190815260200160002060000160006101000a81548173ffffffffffffffffffffffffffffffffffffffff021916908373ffffffffffffffffffffffffffffffffffffffff16021790555034600260003373ffffffffffffffffffffffffffffffffffffffff1673ffffffffffffffffffffffffffffffffffffffff16815260200190815260200160002060010181905550620002a7565b620001bd8160405160240162000134919062000283565b6040516020818303038152906040527f41304fac000000000000000000000000000000000000000000000000000000007bffffffffffffffffffffffffffffffffffffffffffffffffffffffff19166020820180517bffffffffffffffffffffffffffffffffffffffffffffffffffffffff8381831617835250505050620001c060201b60201c565b50565b60008151905060006a636f6e736f6c652e6c6f679050602083016000808483855afa5050505050565b600081519050919050565b600082825260208201905092915050565b60005b838110156200022557808201518184015260208101905062000208565b60008484015250505050565b6000601f19601f8301169050919050565b60006200024f82620001e9565b6200025b8185620001f4565b93506200026d81856020860162000205565b620002788162000231565b840191505092915050565b600060208201905081810360008301526200029f818462000242565b905092915050565b61163680620002b76000396000f3fe6080604052600436106100915760003560e01c8063cc49658e11610059578063cc49658e1461017e578063d386beca1461019a578063e0b6a1e3146101c5578063e0d1e32d146101ee578063fcd12f461461022e57610091565b80632f450f55146100965780636f9fb98a146100c1578063861d3054146100ec578063bbe1562714610103578063c02ef3db14610141575b600080fd5b3480156100a257600080fd5b506100ab61026b565b6040516100b89190610ee4565b60405180910390f35b3480156100cd57600080fd5b506100d6610271565b6040516100e39190610ee4565b60405180910390f35b3480156100f857600080fd5b5061010161027b565b005b34801561010f57600080fd5b5061012a60048036038101906101259190610f62565b6104ca565b604051610138929190610f9e565b60405180910390f35b34801561014d57600080fd5b5061016860048036038101906101639190610f62565b61050e565b60405161017591906110e9565b60405180910390f35b61019860048036038101906101939190610f62565b6107de565b005b3480156101a657600080fd5b506101af610aaf565b6040516101bc91906110e9565b60405180910390f35b3480156101d157600080fd5b506101ec60048036038101906101e79190610f62565b610bce565b005b3480156101fa57600080fd5b5061021560048036038101906102109190611137565b610ce9565b6040516102259493929190611164565b60405180910390f35b34801561023a57600080fd5b5061025560048036038101906102509190610f62565b610d69565b6040516102629190610ee4565b60405180910390f35b60015481565b6000600154905090565b6000600260003373ffffffffffffffffffffffffffffffffffffffff1673ffffffffffffffffffffffffffffffffffffffff1681526020019081526020016000206001015411610300576040517f08c379a00000000000000000000000000000000000000000000000000000000081526004016102f790611206565b60405180910390fd5b600260003373ffffffffffffffffffffffffffffffffffffffff1673ffffffffffffffffffffffffffffffffffffffff168152602001908152602001600020600101543373ffffffffffffffffffffffffffffffffffffffff1631101561039c576040517f08c379a000000000000000000000000000000000000000000000000000000000815260040161039390611298565b60405180910390fd5b3373ffffffffffffffffffffffffffffffffffffffff166108fc600260003373ffffffffffffffffffffffffffffffffffffffff1673ffffffffffffffffffffffffffffffffffffffff168152602001908152602001600020600101549081150290604051600060405180830381858888f19350505050158015610424573d6000803e3d6000fd5b50600260003373ffffffffffffffffffffffffffffffffffffffff1673ffffffffffffffffffffffffffffffffffffffff168152602001908152602001600020600101546001600082825461047991906112e7565b925050819055506000600260003373ffffffffffffffffffffffffffffffffffffffff1673ffffffffffffffffffffffffffffffffffffffff16815260200190815260200160002060010181905550565b60026020528060005260406000206000915090508060000160009054906101000a900473ffffffffffffffffffffffffffffffffffffffff16908060010154905082565b60606000808054905067ffffffffffffffff8111156105305761052f61131b565b5b60405190808252806020026020018201604052801561056957816020015b610556610e77565b81526020019060019003908161054e5790505b5090506000805b600080549050811015610722578473ffffffffffffffffffffffffffffffffffffffff16600082815481106105a8576105a761134a565b5b906000526020600020906004020160000160009054906101000a900473ffffffffffffffffffffffffffffffffffffffff1673ffffffffffffffffffffffffffffffffffffffff160361070f57600081815481106106095761060861134a565b5b90600052602060002090600402016040518060800160405290816000820160009054906101000a900473ffffffffffffffffffffffffffffffffffffffff1673ffffffffffffffffffffffffffffffffffffffff1673ffffffffffffffffffffffffffffffffffffffff1681526020016001820160009054906101000a900473ffffffffffffffffffffffffffffffffffffffff1673ffffffffffffffffffffffffffffffffffffffff1673ffffffffffffffffffffffffffffffffffffffff168152602001600282015481526020016003820154815250508383815181106106f5576106f461134a565b5b6020026020010181905250818061070b90611379565b9250505b808061071a90611379565b915050610570565b5060008167ffffffffffffffff81111561073f5761073e61131b565b5b60405190808252806020026020018201604052801561077857816020015b610765610e77565b81526020019060019003908161075d5790505b50905060005b828110156107d2578381815181106107995761079861134a565b5b60200260200101518282815181106107b4576107b361134a565b5b602002602001018190525080806107ca90611379565b91505061077e565b50809350505050919050565b343373ffffffffffffffffffffffffffffffffffffffff16311015610838576040517f08c379a000000000000000000000000000000000000000000000000000000000815260040161082f9061140d565b60405180910390fd5b61084181610bce565b3373ffffffffffffffffffffffffffffffffffffffff168173ffffffffffffffffffffffffffffffffffffffff16036108af576040517f08c379a00000000000000000000000000000000000000000000000000000000081526004016108a690611479565b60405180910390fd5b600073ffffffffffffffffffffffffffffffffffffffff168173ffffffffffffffffffffffffffffffffffffffff160361091e576040517f08c379a00000000000000000000000000000000000000000000000000000000081526004016109159061150b565b60405180910390fd5b600060405180608001604052808373ffffffffffffffffffffffffffffffffffffffff1681526020013373ffffffffffffffffffffffffffffffffffffffff16815260200134815260200142815250908060018154018082558091505060019003906000526020600020906004020160009091909190915060008201518160000160006101000a81548173ffffffffffffffffffffffffffffffffffffffff021916908373ffffffffffffffffffffffffffffffffffffffff16021790555060208201518160010160006101000a81548173ffffffffffffffffffffffffffffffffffffffff021916908373ffffffffffffffffffffffffffffffffffffffff1602179055506040820151816002015560608201518160030155505034600260008373ffffffffffffffffffffffffffffffffffffffff1673ffffffffffffffffffffffffffffffffffffffff1681526020019081526020016000206001016000828254610a8c919061152b565b925050819055503460016000828254610aa5919061152b565b9250508190555050565b60606000805480602002602001604051908101604052809291908181526020016000905b82821015610bc557838290600052602060002090600402016040518060800160405290816000820160009054906101000a900473ffffffffffffffffffffffffffffffffffffffff1673ffffffffffffffffffffffffffffffffffffffff1673ffffffffffffffffffffffffffffffffffffffff1681526020016001820160009054906101000a900473ffffffffffffffffffffffffffffffffffffffff1673ffffffffffffffffffffffffffffffffffffffff1673ffffffffffffffffffffffffffffffffffffffff1681526020016002820154815260200160038201548152505081526020019060010190610ad3565b50505050905090565b600073ffffffffffffffffffffffffffffffffffffffff16600260008373ffffffffffffffffffffffffffffffffffffffff1673ffffffffffffffffffffffffffffffffffffffff16815260200190815260200160002060000160009054906101000a900473ffffffffffffffffffffffffffffffffffffffff1673ffffffffffffffffffffffffffffffffffffffff1603610ce65780600260008373ffffffffffffffffffffffffffffffffffffffff1673ffffffffffffffffffffffffffffffffffffffff16815260200190815260200160002060000160006101000a81548173ffffffffffffffffffffffffffffffffffffffff021916908373ffffffffffffffffffffffffffffffffffffffff1602179055505b50565b60008181548110610cf957600080fd5b90600052602060002090600402016000915090508060000160009054906101000a900473ffffffffffffffffffffffffffffffffffffffff16908060010160009054906101000a900473ffffffffffffffffffffffffffffffffffffffff16908060020154908060030154905084565b6000600260008373ffffffffffffffffffffffffffffffffffffffff1673ffffffffffffffffffffffffffffffffffffffff168152602001908152602001600020600101549050919050565b610e4b81604051602401610dc991906115de565b6040516020818303038152906040527f41304fac000000000000000000000000000000000000000000000000000000007bffffffffffffffffffffffffffffffffffffffffffffffffffffffff19166020820180517bffffffffffffffffffffffffffffffffffffffffffffffffffffffff8381831617835250505050610e4e565b50565b60008151905060006a636f6e736f6c652e6c6f679050602083016000808483855afa5050505050565b6040518060800160405280600073ffffffffffffffffffffffffffffffffffffffff168152602001600073ffffffffffffffffffffffffffffffffffffffff16815260200160008152602001600081525090565b6000819050919050565b610ede81610ecb565b82525050565b6000602082019050610ef96000830184610ed5565b92915050565b600080fd5b600073ffffffffffffffffffffffffffffffffffffffff82169050919050565b6000610f2f82610f04565b9050919050565b610f3f81610f24565b8114610f4a57600080fd5b50565b600081359050610f5c81610f36565b92915050565b600060208284031215610f7857610f77610eff565b5b6000610f8684828501610f4d565b91505092915050565b610f9881610f24565b82525050565b6000604082019050610fb36000830185610f8f565b610fc06020830184610ed5565b9392505050565b600081519050919050565b600082825260208201905092915050565b6000819050602082019050919050565b610ffc81610f24565b82525050565b61100b81610ecb565b82525050565b6080820160008201516110276000850182610ff3565b50602082015161103a6020850182610ff3565b50604082015161104d6040850182611002565b5060608201516110606060850182611002565b50505050565b60006110728383611011565b60808301905092915050565b6000602082019050919050565b600061109682610fc7565b6110a08185610fd2565b93506110ab83610fe3565b8060005b838110156110dc5781516110c38882611066565b97506110ce8361107e565b9250506001810190506110af565b5085935050505092915050565b60006020820190508181036000830152611103818461108b565b905092915050565b61111481610ecb565b811461111f57600080fd5b50565b6000813590506111318161110b565b92915050565b60006020828403121561114d5761114c610eff565b5b600061115b84828501611122565b91505092915050565b60006080820190506111796000830187610f8f565b6111866020830186610f8f565b6111936040830185610ed5565b6111a06060830184610ed5565b95945050505050565b600082825260208201905092915050565b7f50726f66696c6520686173206e6f2062616c616e636500000000000000000000600082015250565b60006111f06016836111a9565b91506111fb826111ba565b602082019050919050565b6000602082019050818103600083015261121f816111e3565b9050919050565b7f50726f66696c6520646f65736e2774206861766520656e6f756768204554482060008201527f746f2077697468647261772074686569722062616c616e636500000000000000602082015250565b60006112826039836111a9565b915061128d82611226565b604082019050919050565b600060208201905081810360008301526112b181611275565b9050919050565b7f4e487b7100000000000000000000000000000000000000000000000000000000600052601160045260246000fd5b60006112f282610ecb565b91506112fd83610ecb565b9250828203905081811115611315576113146112b8565b5b92915050565b7f4e487b7100000000000000000000000000000000000000000000000000000000600052604160045260246000fd5b7f4e487b7100000000000000000000000000000000000000000000000000000000600052603260045260246000fd5b600061138482610ecb565b91507fffffffffffffffffffffffffffffffffffffffffffffffffffffffffffffffff82036113b6576113b56112b8565b5b600182019050919050565b7f596f7520646f6e2774206861766520656e6f7567682045544800000000000000600082015250565b60006113f76019836111a9565b9150611402826113c1565b602082019050919050565b60006020820190508181036000830152611426816113ea565b9050919050565b7f596f752063616e27742062757920796f7572206f776e20636f66666565000000600082015250565b6000611463601d836111a9565b915061146e8261142d565b602082019050919050565b6000602082019050818103600083015261149281611456565b9050919050565b7f50726f66696c6520616464726573732063616e6e6f7420626520746865207a6560008201527f726f206164647265737300000000000000000000000000000000000000000000602082015250565b60006114f5602a836111a9565b915061150082611499565b604082019050919050565b60006020820190508181036000830152611524816114e8565b9050919050565b600061153682610ecb565b915061154183610ecb565b9250828201905080821115611559576115586112b8565b5b92915050565b600081519050919050565b60005b8381101561158857808201518184015260208101905061156d565b60008484015250505050565b6000601f19601f8301169050919050565b60006115b08261155f565b6115ba81856111a9565b93506115ca81856020860161156a565b6115d381611594565b840191505092915050565b600060208201905081810360008301526115f881846115a5565b90509291505056fea2646970667358221220842a6ca1ee23526170d1bf29b0b8317f71812c50f15f9e6a3fb9958c310286c464736f6c63430008110033",
  "linkReferences": {},
  "deployedLinkReferences": {}
}