{
  "_format": "hh-sol-artifact-1",
  "contractName": "BuyCoffee",
  "sourceName": "contracts/BuyCoffee.sol",
  "abi": [
    {
      "inputs": [],
      "stateMutability": "payable",
      "type": "constructor"
    },
    {
      "anonymous": false,
      "inputs": [
        {
          "indexed": true,
          "internalType": "address",
          "name": "profile",
          "type": "address"
        },
        {
          "indexed": false,
          "internalType": "uint256",
          "name": "amount",
          "type": "uint256"
        }
      ],
      "name": "Withdrawal",
      "type": "event"
    },
    {
      "inputs": [
        {
          "internalType": "address",
          "name": "profile",
          "type": "address"
        },
        {
          "internalType": "uint256",
          "name": "contract_id",
          "type": "uint256"
        }
      ],
      "name": "buymeacoffee",
      "outputs": [],
      "stateMutability": "payable",
      "type": "function"
    },
    {
      "inputs": [
        {
          "internalType": "uint256",
          "name": "",
          "type": "uint256"
        }
      ],
      "name": "coffee",
      "outputs": [
        {
          "internalType": "address",
          "name": "profile",
          "type": "address"
        },
        {
          "internalType": "address",
          "name": "supporter",
          "type": "address"
        },
        {
          "internalType": "uint256",
          "name": "amount",
          "type": "uint256"
        },
        {
          "internalType": "uint256",
          "name": "contract_id",
          "type": "uint256"
        }
      ],
      "stateMutability": "view",
      "type": "function"
    },
    {
      "inputs": [],
      "name": "getAllCoffee",
      "outputs": [
        {
          "components": [
            {
              "internalType": "address",
              "name": "profile",
              "type": "address"
            },
            {
              "internalType": "address",
              "name": "supporter",
              "type": "address"
            },
            {
              "internalType": "uint256",
              "name": "amount",
              "type": "uint256"
            },
            {
              "internalType": "uint256",
              "name": "contract_id",
              "type": "uint256"
            }
          ],
          "internalType": "struct BuyCoffee.Coffee[]",
          "name": "",
          "type": "tuple[]"
        }
      ],
      "stateMutability": "view",
      "type": "function"
    },
    {
      "inputs": [
        {
          "internalType": "address",
          "name": "profile",
          "type": "address"
        }
      ],
      "name": "getCoffeeByProfile",
      "outputs": [
        {
          "components": [
            {
              "internalType": "address",
              "name": "profile",
              "type": "address"
            },
            {
              "internalType": "address",
              "name": "supporter",
              "type": "address"
            },
            {
              "internalType": "uint256",
              "name": "amount",
              "type": "uint256"
            },
            {
              "internalType": "uint256",
              "name": "contract_id",
              "type": "uint256"
            }
          ],
          "internalType": "struct BuyCoffee.Coffee[]",
          "name": "",
          "type": "tuple[]"
        }
      ],
      "stateMutability": "view",
      "type": "function"
    },
    {
      "inputs": [],
      "name": "getContractBalance",
      "outputs": [
        {
          "internalType": "uint256",
          "name": "",
          "type": "uint256"
        }
      ],
      "stateMutability": "view",
      "type": "function"
    },
    {
      "inputs": [
        {
          "internalType": "address",
          "name": "profile",
          "type": "address"
        }
      ],
      "name": "getProfileBalance",
      "outputs": [
        {
          "internalType": "uint256",
          "name": "",
          "type": "uint256"
        }
      ],
      "stateMutability": "view",
      "type": "function"
    },
    {
      "inputs": [
        {
          "internalType": "address",
          "name": "",
          "type": "address"
        }
      ],
      "name": "profiles",
      "outputs": [
        {
          "internalType": "address",
          "name": "wallet_address",
          "type": "address"
        },
        {
          "internalType": "uint256",
          "name": "balance",
          "type": "uint256"
        }
      ],
      "stateMutability": "view",
      "type": "function"
    },
    {
      "inputs": [
        {
          "internalType": "address",
          "name": "profile",
          "type": "address"
        }
      ],
      "name": "setProfile",
      "outputs": [],
      "stateMutability": "nonpayable",
      "type": "function"
    },
    {
      "inputs": [],
      "name": "total_contract_balance",
      "outputs": [
        {
          "internalType": "uint256",
          "name": "",
          "type": "uint256"
        }
      ],
      "stateMutability": "view",
      "type": "function"
    },
    {
      "inputs": [],
      "name": "withdrawProfileBalance",
      "outputs": [],
      "stateMutability": "nonpayable",
      "type": "function"
    }
  ],
  "bytecode": "0x60806040526200004f6040518060400160405280601981526020017f496e697469616c697a6520536d61727420436f6e7472616374000000000000008152506200011d60201b62000e181760201c565b33600260003373ffffffffffffffffffffffffffffffffffffffff1673ffffffffffffffffffffffffffffffffffffffff16815260200190815260200160002060000160006101000a81548173ffffffffffffffffffffffffffffffffffffffff021916908373ffffffffffffffffffffffffffffffffffffffff16021790555034600260003373ffffffffffffffffffffffffffffffffffffffff1673ffffffffffffffffffffffffffffffffffffffff16815260200190815260200160002060010181905550620002a7565b620001bd8160405160240162000134919062000283565b6040516020818303038152906040527f41304fac000000000000000000000000000000000000000000000000000000007bffffffffffffffffffffffffffffffffffffffffffffffffffffffff19166020820180517bffffffffffffffffffffffffffffffffffffffffffffffffffffffff8381831617835250505050620001c060201b60201c565b50565b60008151905060006a636f6e736f6c652e6c6f679050602083016000808483855afa5050505050565b600081519050919050565b600082825260208201905092915050565b60005b838110156200022557808201518184015260208101905062000208565b60008484015250505050565b6000601f19601f8301169050919050565b60006200024f82620001e9565b6200025b8185620001f4565b93506200026d81856020860162000205565b620002788162000231565b840191505092915050565b600060208201905081810360008301526200029f818462000242565b905092915050565b61181d80620002b76000396000f3fe6080604052600436106100915760003560e01c8063c02ef3db11610059578063c02ef3db1461015d578063d386beca1461019a578063e0b6a1e3146101c5578063e0d1e32d146101ee578063fcd12f461461022e57610091565b806325256db4146100965780632f450f55146100b25780636f9fb98a146100dd578063861d305414610108578063bbe156271461011f575b600080fd5b6100b060048036038101906100ab9190610fc7565b61026b565b005b3480156100be57600080fd5b506100c7610580565b6040516100d49190611016565b60405180910390f35b3480156100e957600080fd5b506100f2610586565b6040516100ff9190611016565b60405180910390f35b34801561011457600080fd5b5061011d610590565b005b34801561012b57600080fd5b5061014660048036038101906101419190611031565b6107fe565b60405161015492919061106d565b60405180910390f35b34801561016957600080fd5b50610184600480360381019061017f9190611031565b610842565b60405161019191906111b8565b60405180910390f35b3480156101a657600080fd5b506101af610b12565b6040516101bc91906111b8565b60405180910390f35b3480156101d157600080fd5b506101ec60048036038101906101e79190611031565b610c31565b005b3480156101fa57600080fd5b50610215600480360381019061021091906111da565b610d4c565b6040516102259493929190611207565b60405180910390f35b34801561023a57600080fd5b5061025560048036038101906102509190611031565b610dcc565b6040516102629190611016565b60405180910390f35b343373ffffffffffffffffffffffffffffffffffffffff163110156102c5576040517f08c379a00000000000000000000000000000000000000000000000000000000081526004016102bc906112a9565b60405180910390fd5b6102ce82610c31565b3373ffffffffffffffffffffffffffffffffffffffff168273ffffffffffffffffffffffffffffffffffffffff160361033c576040517f08c379a000000000000000000000000000000000000000000000000000000000815260040161033390611315565b60405180910390fd5b600073ffffffffffffffffffffffffffffffffffffffff168273ffffffffffffffffffffffffffffffffffffffff16036103ab576040517f08c379a00000000000000000000000000000000000000000000000000000000081526004016103a2906113a7565b60405180910390fd5b600081116103ee576040517f08c379a00000000000000000000000000000000000000000000000000000000081526004016103e590611439565b60405180910390fd5b600060405180608001604052808473ffffffffffffffffffffffffffffffffffffffff1681526020013373ffffffffffffffffffffffffffffffffffffffff16815260200134815260200183815250908060018154018082558091505060019003906000526020600020906004020160009091909190915060008201518160000160006101000a81548173ffffffffffffffffffffffffffffffffffffffff021916908373ffffffffffffffffffffffffffffffffffffffff16021790555060208201518160010160006101000a81548173ffffffffffffffffffffffffffffffffffffffff021916908373ffffffffffffffffffffffffffffffffffffffff1602179055506040820151816002015560608201518160030155505034600260008473ffffffffffffffffffffffffffffffffffffffff1673ffffffffffffffffffffffffffffffffffffffff168152602001908152602001600020600101600082825461055c9190611488565b9250508190555034600160008282546105759190611488565b925050819055505050565b60015481565b6000600154905090565b6000600260003373ffffffffffffffffffffffffffffffffffffffff1673ffffffffffffffffffffffffffffffffffffffff1681526020019081526020016000206001015411610615576040517f08c379a000000000000000000000000000000000000000000000000000000000815260040161060c90611508565b60405180910390fd5b6000600260003373ffffffffffffffffffffffffffffffffffffffff1673ffffffffffffffffffffffffffffffffffffffff1681526020019081526020016000206001015490508047101561069f576040517f08c379a00000000000000000000000000000000000000000000000000000000081526004016106969061159a565b60405180910390fd5b6000600260003373ffffffffffffffffffffffffffffffffffffffff1673ffffffffffffffffffffffffffffffffffffffff1681526020019081526020016000206001018190555080600160008282546106f991906115ba565b9250508190555060003373ffffffffffffffffffffffffffffffffffffffff16826040516107269061161f565b60006040518083038185875af1925050503d8060008114610763576040519150601f19603f3d011682016040523d82523d6000602084013e610768565b606091505b50509050806107ac576040517f08c379a00000000000000000000000000000000000000000000000000000000081526004016107a390611680565b60405180910390fd5b3373ffffffffffffffffffffffffffffffffffffffff167f7fcf532c15f0a6db0bd6d0e038bea71d30d808c7d98cb3bf7268a95bf5081b65836040516107f29190611016565b60405180910390a25050565b60026020528060005260406000206000915090508060000160009054906101000a900473ffffffffffffffffffffffffffffffffffffffff16908060010154905082565b60606000808054905067ffffffffffffffff811115610864576108636116a0565b5b60405190808252806020026020018201604052801561089d57816020015b61088a610eda565b8152602001906001900390816108825790505b5090506000805b600080549050811015610a56578473ffffffffffffffffffffffffffffffffffffffff16600082815481106108dc576108db6116cf565b5b906000526020600020906004020160000160009054906101000a900473ffffffffffffffffffffffffffffffffffffffff1673ffffffffffffffffffffffffffffffffffffffff1603610a43576000818154811061093d5761093c6116cf565b5b90600052602060002090600402016040518060800160405290816000820160009054906101000a900473ffffffffffffffffffffffffffffffffffffffff1673ffffffffffffffffffffffffffffffffffffffff1673ffffffffffffffffffffffffffffffffffffffff1681526020016001820160009054906101000a900473ffffffffffffffffffffffffffffffffffffffff1673ffffffffffffffffffffffffffffffffffffffff1673ffffffffffffffffffffffffffffffffffffffff16815260200160028201548152602001600382015481525050838381518110610a2957610a286116cf565b5b60200260200101819052508180610a3f906116fe565b9250505b8080610a4e906116fe565b9150506108a4565b5060008167ffffffffffffffff811115610a7357610a726116a0565b5b604051908082528060200260200182016040528015610aac57816020015b610a99610eda565b815260200190600190039081610a915790505b50905060005b82811015610b0657838181518110610acd57610acc6116cf565b5b6020026020010151828281518110610ae857610ae76116cf565b5b60200260200101819052508080610afe906116fe565b915050610ab2565b50809350505050919050565b60606000805480602002602001604051908101604052809291908181526020016000905b82821015610c2857838290600052602060002090600402016040518060800160405290816000820160009054906101000a900473ffffffffffffffffffffffffffffffffffffffff1673ffffffffffffffffffffffffffffffffffffffff1673ffffffffffffffffffffffffffffffffffffffff1681526020016001820160009054906101000a900473ffffffffffffffffffffffffffffffffffffffff1673ffffffffffffffffffffffffffffffffffffffff1673ffffffffffffffffffffffffffffffffffffffff1681526020016002820154815260200160038201548152505081526020019060010190610b36565b50505050905090565b600073ffffffffffffffffffffffffffffffffffffffff16600260008373ffffffffffffffffffffffffffffffffffffffff1673ffffffffffffffffffffffffffffffffffffffff16815260200190815260200160002060000160009054906101000a900473ffffffffffffffffffffffffffffffffffffffff1673ffffffffffffffffffffffffffffffffffffffff1603610d495780600260008373ffffffffffffffffffffffffffffffffffffffff1673ffffffffffffffffffffffffffffffffffffffff16815260200190815260200160002060000160006101000a81548173ffffffffffffffffffffffffffffffffffffffff021916908373ffffffffffffffffffffffffffffffffffffffff1602179055505b50565b60008181548110610d5c57600080fd5b90600052602060002090600402016000915090508060000160009054906101000a900473ffffffffffffffffffffffffffffffffffffffff16908060010160009054906101000a900473ffffffffffffffffffffffffffffffffffffffff16908060020154908060030154905084565b6000600260008373ffffffffffffffffffffffffffffffffffffffff1673ffffffffffffffffffffffffffffffffffffffff168152602001908152602001600020600101549050919050565b610eae81604051602401610e2c91906117c5565b6040516020818303038152906040527f41304fac000000000000000000000000000000000000000000000000000000007bffffffffffffffffffffffffffffffffffffffffffffffffffffffff19166020820180517bffffffffffffffffffffffffffffffffffffffffffffffffffffffff8381831617835250505050610eb1565b50565b60008151905060006a636f6e736f6c652e6c6f679050602083016000808483855afa5050505050565b6040518060800160405280600073ffffffffffffffffffffffffffffffffffffffff168152602001600073ffffffffffffffffffffffffffffffffffffffff16815260200160008152602001600081525090565b600080fd5b600073ffffffffffffffffffffffffffffffffffffffff82169050919050565b6000610f5e82610f33565b9050919050565b610f6e81610f53565b8114610f7957600080fd5b50565b600081359050610f8b81610f65565b92915050565b6000819050919050565b610fa481610f91565b8114610faf57600080fd5b50565b600081359050610fc181610f9b565b92915050565b60008060408385031215610fde57610fdd610f2e565b5b6000610fec85828601610f7c565b9250506020610ffd85828601610fb2565b9150509250929050565b61101081610f91565b82525050565b600060208201905061102b6000830184611007565b92915050565b60006020828403121561104757611046610f2e565b5b600061105584828501610f7c565b91505092915050565b61106781610f53565b82525050565b6000604082019050611082600083018561105e565b61108f6020830184611007565b9392505050565b600081519050919050565b600082825260208201905092915050565b6000819050602082019050919050565b6110cb81610f53565b82525050565b6110da81610f91565b82525050565b6080820160008201516110f660008501826110c2565b50602082015161110960208501826110c2565b50604082015161111c60408501826110d1565b50606082015161112f60608501826110d1565b50505050565b600061114183836110e0565b60808301905092915050565b6000602082019050919050565b600061116582611096565b61116f81856110a1565b935061117a836110b2565b8060005b838110156111ab5781516111928882611135565b975061119d8361114d565b92505060018101905061117e565b5085935050505092915050565b600060208201905081810360008301526111d2818461115a565b905092915050565b6000602082840312156111f0576111ef610f2e565b5b60006111fe84828501610fb2565b91505092915050565b600060808201905061121c600083018761105e565b611229602083018661105e565b6112366040830185611007565b6112436060830184611007565b95945050505050565b600082825260208201905092915050565b7f596f7520646f6e2774206861766520656e6f7567682045544800000000000000600082015250565b600061129360198361124c565b915061129e8261125d565b602082019050919050565b600060208201905081810360008301526112c281611286565b9050919050565b7f596f752063616e27742062757920796f7572206f776e20636f66666565000000600082015250565b60006112ff601d8361124c565b915061130a826112c9565b602082019050919050565b6000602082019050818103600083015261132e816112f2565b9050919050565b7f50726f66696c6520616464726573732063616e6e6f7420626520746865207a6560008201527f726f206164647265737300000000000000000000000000000000000000000000602082015250565b6000611391602a8361124c565b915061139c82611335565b604082019050919050565b600060208201905081810360008301526113c081611384565b9050919050565b7f436f6e7472616374204944206d7573742062652067726561746572207468616e60008201527f2030000000000000000000000000000000000000000000000000000000000000602082015250565b600061142360228361124c565b915061142e826113c7565b604082019050919050565b6000602082019050818103600083015261145281611416565b9050919050565b7f4e487b7100000000000000000000000000000000000000000000000000000000600052601160045260246000fd5b600061149382610f91565b915061149e83610f91565b92508282019050808211156114b6576114b5611459565b5b92915050565b7f50726f66696c6520686173206e6f2062616c616e636500000000000000000000600082015250565b60006114f260168361124c565b91506114fd826114bc565b602082019050919050565b60006020820190508181036000830152611521816114e5565b9050919050565b7f436f6e747261637420646f65736e2774206861766520656e6f7567682045544860008201527f20746f2066756c66696c6c20746865207769746864726177616c000000000000602082015250565b6000611584603a8361124c565b915061158f82611528565b604082019050919050565b600060208201905081810360008301526115b381611577565b9050919050565b60006115c582610f91565b91506115d083610f91565b92508282039050818111156115e8576115e7611459565b5b92915050565b600081905092915050565b50565b60006116096000836115ee565b9150611614826115f9565b600082019050919050565b600061162a826115fc565b9150819050919050565b7f5769746864726177616c206661696c6564000000000000000000000000000000600082015250565b600061166a60118361124c565b915061167582611634565b602082019050919050565b600060208201905081810360008301526116998161165d565b9050919050565b7f4e487b7100000000000000000000000000000000000000000000000000000000600052604160045260246000fd5b7f4e487b7100000000000000000000000000000000000000000000000000000000600052603260045260246000fd5b600061170982610f91565b91507fffffffffffffffffffffffffffffffffffffffffffffffffffffffffffffffff820361173b5761173a611459565b5b600182019050919050565b600081519050919050565b60005b8381101561176f578082015181840152602081019050611754565b60008484015250505050565b6000601f19601f8301169050919050565b600061179782611746565b6117a1818561124c565b93506117b1818560208601611751565b6117ba8161177b565b840191505092915050565b600060208201905081810360008301526117df818461178c565b90509291505056fea2646970667358221220b232ce98c9d7eb794197d5445537d31f9bccc7e5e0f4d38600c5d67f3965038a64736f6c63430008110033",
  "linkReferences": {},
  "deployedLinkReferences": {}
}