{
  "_format": "hh-sol-artifact-1",
  "contractName": "BuyCoffee",
  "sourceName": "contracts/BuyCoffee.sol",
  "abi": [
    {
      "inputs": [
        {
          "internalType": "address",
          "name": "author_wallet_address",
          "type": "address"
        }
      ],
      "name": "author_withdraw",
      "outputs": [],
      "stateMutability": "nonpayable",
      "type": "function"
    },
    {
      "inputs": [
        {
          "internalType": "address",
          "name": "",
          "type": "address"
        }
      ],
      "name": "authors",
      "outputs": [
        {
          "internalType": "address",
          "name": "wallet_address",
          "type": "address"
        },
        {
          "internalType": "uint256",
          "name": "balance",
          "type": "uint256"
        }
      ],
      "stateMutability": "view",
      "type": "function"
    },
    {
      "inputs": [
        {
          "internalType": "address",
          "name": "author_wallet_address",
          "type": "address"
        }
      ],
      "name": "buymeacoffee",
      "outputs": [],
      "stateMutability": "payable",
      "type": "function"
    },
    {
      "inputs": [
        {
          "internalType": "uint256",
          "name": "",
          "type": "uint256"
        }
      ],
      "name": "coffee",
      "outputs": [
        {
          "internalType": "address",
          "name": "author_wallet_address",
          "type": "address"
        },
        {
          "internalType": "address",
          "name": "sender_wallet_address",
          "type": "address"
        },
        {
          "internalType": "uint256",
          "name": "amount",
          "type": "uint256"
        },
        {
          "internalType": "uint256",
          "name": "timestamp",
          "type": "uint256"
        }
      ],
      "stateMutability": "view",
      "type": "function"
    },
    {
      "inputs": [],
      "name": "getContractBalance",
      "outputs": [
        {
          "internalType": "uint256",
          "name": "",
          "type": "uint256"
        }
      ],
      "stateMutability": "view",
      "type": "function"
    },
    {
      "inputs": [],
      "name": "total_contract_balance",
      "outputs": [
        {
          "internalType": "uint256",
          "name": "",
          "type": "uint256"
        }
      ],
      "stateMutability": "view",
      "type": "function"
    }
  ],
  "bytecode": "0x608060405234801561001057600080fd5b506108e4806100206000396000f3fe6080604052600436106100555760003560e01c80632f450f551461005a5780636f9fb98a14610085578063bf9c5001146100b0578063cc49658e146100ee578063e0d1e32d1461010a578063edf081c81461014a575b600080fd5b34801561006657600080fd5b5061006f610173565b60405161007c9190610587565b60405180910390f35b34801561009157600080fd5b5061009a610179565b6040516100a79190610587565b60405180910390f35b3480156100bc57600080fd5b506100d760048036038101906100d29190610605565b610183565b6040516100e5929190610641565b60405180910390f35b61010860048036038101906101039190610605565b6101c7565b005b34801561011657600080fd5b50610131600480360381019061012c9190610696565b6103b2565b60405161014194939291906106c3565b60405180910390f35b34801561015657600080fd5b50610171600480360381019061016c9190610605565b610432565b005b60025481565b6000600254905090565b60016020528060005260406000206000915090508060000160009054906101000a900473ffffffffffffffffffffffffffffffffffffffff16908060010154905082565b343373ffffffffffffffffffffffffffffffffffffffff16311015610221576040517f08c379a000000000000000000000000000000000000000000000000000000000815260040161021890610765565b60405180910390fd5b600060405180608001604052808373ffffffffffffffffffffffffffffffffffffffff1681526020013373ffffffffffffffffffffffffffffffffffffffff16815260200134815260200142815250908060018154018082558091505060019003906000526020600020906004020160009091909190915060008201518160000160006101000a81548173ffffffffffffffffffffffffffffffffffffffff021916908373ffffffffffffffffffffffffffffffffffffffff16021790555060208201518160010160006101000a81548173ffffffffffffffffffffffffffffffffffffffff021916908373ffffffffffffffffffffffffffffffffffffffff1602179055506040820151816002015560608201518160030155505034600160008373ffffffffffffffffffffffffffffffffffffffff1673ffffffffffffffffffffffffffffffffffffffff168152602001908152602001600020600101600082825461038f91906107b4565b9250508190555034600260008282546103a891906107b4565b9250508190555050565b600081815481106103c257600080fd5b90600052602060002090600402016000915090508060000160009054906101000a900473ffffffffffffffffffffffffffffffffffffffff16908060010160009054906101000a900473ffffffffffffffffffffffffffffffffffffffff16908060020154908060030154905084565b60008190506000600160008473ffffffffffffffffffffffffffffffffffffffff1673ffffffffffffffffffffffffffffffffffffffff168152602001908152602001600020600101549050600081116104c1576040517f08c379a00000000000000000000000000000000000000000000000000000000081526004016104b89061085a565b60405180910390fd5b6000600160008573ffffffffffffffffffffffffffffffffffffffff1673ffffffffffffffffffffffffffffffffffffffff16815260200190815260200160002060010181905550806002600082825461051b919061087a565b925050819055508173ffffffffffffffffffffffffffffffffffffffff166108fc829081150290604051600060405180830381858888f19350505050158015610568573d6000803e3d6000fd5b50505050565b6000819050919050565b6105818161056e565b82525050565b600060208201905061059c6000830184610578565b92915050565b600080fd5b600073ffffffffffffffffffffffffffffffffffffffff82169050919050565b60006105d2826105a7565b9050919050565b6105e2816105c7565b81146105ed57600080fd5b50565b6000813590506105ff816105d9565b92915050565b60006020828403121561061b5761061a6105a2565b5b6000610629848285016105f0565b91505092915050565b61063b816105c7565b82525050565b60006040820190506106566000830185610632565b6106636020830184610578565b9392505050565b6106738161056e565b811461067e57600080fd5b50565b6000813590506106908161066a565b92915050565b6000602082840312156106ac576106ab6105a2565b5b60006106ba84828501610681565b91505092915050565b60006080820190506106d86000830187610632565b6106e56020830186610632565b6106f26040830185610578565b6106ff6060830184610578565b95945050505050565b600082825260208201905092915050565b7f596f7520646f6e2774206861766520656e6f7567682045544800000000000000600082015250565b600061074f601983610708565b915061075a82610719565b602082019050919050565b6000602082019050818103600083015261077e81610742565b9050919050565b7f4e487b7100000000000000000000000000000000000000000000000000000000600052601160045260246000fd5b60006107bf8261056e565b91506107ca8361056e565b92508282019050808211156107e2576107e1610785565b5b92915050565b7f417574686f7220686173206e6f2062616c616e636520746f207769746864726160008201527f7700000000000000000000000000000000000000000000000000000000000000602082015250565b6000610844602183610708565b915061084f826107e8565b604082019050919050565b6000602082019050818103600083015261087381610837565b9050919050565b60006108858261056e565b91506108908361056e565b92508282039050818111156108a8576108a7610785565b5b9291505056fea264697066735822122046787cbcf03f5837eb313c975be70a8e1f23f5f2b60f94dc9caa333ac44e04dd64736f6c63430008110033",
  "linkReferences": {},
  "deployedLinkReferences": {}
}