{
  "_format": "hh-sol-artifact-1",
  "contractName": "BuyCoffee",
  "sourceName": "contracts/BuyCoffee.sol",
  "abi": [
    {
      "inputs": [],
      "stateMutability": "payable",
      "type": "constructor"
    },
    {
      "inputs": [
        {
          "internalType": "string",
          "name": "_message",
          "type": "string"
        },
        {
          "internalType": "string",
          "name": "_name",
          "type": "string"
        }
      ],
      "name": "buyCoffee",
      "outputs": [],
      "stateMutability": "payable",
      "type": "function"
    },
    {
      "inputs": [],
      "name": "getAllCoffees",
      "outputs": [
        {
          "components": [
            {
              "internalType": "address",
              "name": "supporter",
              "type": "address"
            },
            {
              "internalType": "string",
              "name": "message",
              "type": "string"
            },
            {
              "internalType": "string",
              "name": "name",
              "type": "string"
            },
            {
              "internalType": "uint256",
              "name": "amount",
              "type": "uint256"
            },
            {
              "internalType": "uint256",
              "name": "timestamp",
              "type": "uint256"
            }
          ],
          "internalType": "struct BuyCoffee.Coffee[]",
          "name": "",
          "type": "tuple[]"
        }
      ],
      "stateMutability": "view",
      "type": "function"
    },
    {
      "inputs": [],
      "name": "getBalance",
      "outputs": [
        {
          "internalType": "uint256",
          "name": "",
          "type": "uint256"
        }
      ],
      "stateMutability": "view",
      "type": "function"
    },
    {
      "inputs": [],
      "name": "owner",
      "outputs": [
        {
          "internalType": "address payable",
          "name": "",
          "type": "address"
        }
      ],
      "stateMutability": "view",
      "type": "function"
    },
    {
      "inputs": [],
      "name": "withdraw",
      "outputs": [],
      "stateMutability": "nonpayable",
      "type": "function"
    }
  ],
  "bytecode": "0x6080604052620000336040518060600160405280602e815260200162001365602e91396200007a60201b620006a71760201c565b33600160006101000a81548173ffffffffffffffffffffffffffffffffffffffff021916908373ffffffffffffffffffffffffffffffffffffffff16021790555062000204565b6200011a81604051602401620000919190620001e0565b6040516020818303038152906040527f41304fac000000000000000000000000000000000000000000000000000000007bffffffffffffffffffffffffffffffffffffffffffffffffffffffff19166020820180517bffffffffffffffffffffffffffffffffffffffffffffffffffffffff83818316178352505050506200011d60201b60201c565b50565b60008151905060006a636f6e736f6c652e6c6f679050602083016000808483855afa5050505050565b600081519050919050565b600082825260208201905092915050565b60005b838110156200018257808201518184015260208101905062000165565b60008484015250505050565b6000601f19601f8301169050919050565b6000620001ac8262000146565b620001b8818562000151565b9350620001ca81856020860162000162565b620001d5816200018e565b840191505092915050565b60006020820190508181036000830152620001fc81846200019f565b905092915050565b61115180620002146000396000f3fe60806040526004361061004a5760003560e01c806312065fe01461004f578063204206e11461007a5780633ccfd60b146100965780638da5cb5b146100ad578063c2000268146100d8575b600080fd5b34801561005b57600080fd5b50610064610103565b6040516100719190610782565b60405180910390f35b610094600480360381019061008f91906108f7565b61019b565b005b3480156100a257600080fd5b506100ab6102ea565b005b3480156100b957600080fd5b506100c2610494565b6040516100cf91906109b0565b60405180910390f35b3480156100e457600080fd5b506100ed6104ba565b6040516100fa9190610bb9565b60405180910390f35b6000600160009054906101000a900473ffffffffffffffffffffffffffffffffffffffff1673ffffffffffffffffffffffffffffffffffffffff163373ffffffffffffffffffffffffffffffffffffffff1614610195576040517f08c379a000000000000000000000000000000000000000000000000000000000815260040161018c90610c38565b60405180910390fd5b47905090565b343373ffffffffffffffffffffffffffffffffffffffff163110156101f5576040517f08c379a00000000000000000000000000000000000000000000000000000000081526004016101ec90610ca4565b60405180910390fd5b60006040518060a001604052803373ffffffffffffffffffffffffffffffffffffffff16815260200184815260200183815260200134815260200142815250908060018154018082558091505060019003906000526020600020906005020160009091909190915060008201518160000160006101000a81548173ffffffffffffffffffffffffffffffffffffffff021916908373ffffffffffffffffffffffffffffffffffffffff16021790555060208201518160010190816102b99190610ed0565b5060408201518160020190816102cf9190610ed0565b50606082015181600301556080820151816004015550505050565b600160009054906101000a900473ffffffffffffffffffffffffffffffffffffffff1673ffffffffffffffffffffffffffffffffffffffff163373ffffffffffffffffffffffffffffffffffffffff161461037a576040517f08c379a000000000000000000000000000000000000000000000000000000000815260040161037190610c38565b60405180910390fd5b6000479050600081116103c2576040517f08c379a00000000000000000000000000000000000000000000000000000000081526004016103b990610fee565b60405180910390fd5b6000600160009054906101000a900473ffffffffffffffffffffffffffffffffffffffff1673ffffffffffffffffffffffffffffffffffffffff168260405161040a9061103f565b60006040518083038185875af1925050503d8060008114610447576040519150601f19603f3d011682016040523d82523d6000602084013e61044c565b606091505b5050905080610490576040517f08c379a0000000000000000000000000000000000000000000000000000000008152600401610487906110a0565b60405180910390fd5b5050565b600160009054906101000a900473ffffffffffffffffffffffffffffffffffffffff1681565b60606000805480602002602001604051908101604052809291908181526020016000905b8282101561069e57838290600052602060002090600502016040518060a00160405290816000820160009054906101000a900473ffffffffffffffffffffffffffffffffffffffff1673ffffffffffffffffffffffffffffffffffffffff1673ffffffffffffffffffffffffffffffffffffffff16815260200160018201805461056790610cf3565b80601f016020809104026020016040519081016040528092919081815260200182805461059390610cf3565b80156105e05780601f106105b5576101008083540402835291602001916105e0565b820191906000526020600020905b8154815290600101906020018083116105c357829003601f168201915b505050505081526020016002820180546105f990610cf3565b80601f016020809104026020016040519081016040528092919081815260200182805461062590610cf3565b80156106725780601f1061064757610100808354040283529160200191610672565b820191906000526020600020905b81548152906001019060200180831161065557829003601f168201915b5050505050815260200160038201548152602001600482015481525050815260200190600101906104de565b50505050905090565b61073d816040516024016106bb91906110f9565b6040516020818303038152906040527f41304fac000000000000000000000000000000000000000000000000000000007bffffffffffffffffffffffffffffffffffffffffffffffffffffffff19166020820180517bffffffffffffffffffffffffffffffffffffffffffffffffffffffff8381831617835250505050610740565b50565b60008151905060006a636f6e736f6c652e6c6f679050602083016000808483855afa5050505050565b6000819050919050565b61077c81610769565b82525050565b60006020820190506107976000830184610773565b92915050565b6000604051905090565b600080fd5b600080fd5b600080fd5b600080fd5b6000601f19601f8301169050919050565b7f4e487b7100000000000000000000000000000000000000000000000000000000600052604160045260246000fd5b610804826107bb565b810181811067ffffffffffffffff82111715610823576108226107cc565b5b80604052505050565b600061083661079d565b905061084282826107fb565b919050565b600067ffffffffffffffff821115610862576108616107cc565b5b61086b826107bb565b9050602081019050919050565b82818337600083830152505050565b600061089a61089584610847565b61082c565b9050828152602081018484840111156108b6576108b56107b6565b5b6108c1848285610878565b509392505050565b600082601f8301126108de576108dd6107b1565b5b81356108ee848260208601610887565b91505092915050565b6000806040838503121561090e5761090d6107a7565b5b600083013567ffffffffffffffff81111561092c5761092b6107ac565b5b610938858286016108c9565b925050602083013567ffffffffffffffff811115610959576109586107ac565b5b610965858286016108c9565b9150509250929050565b600073ffffffffffffffffffffffffffffffffffffffff82169050919050565b600061099a8261096f565b9050919050565b6109aa8161098f565b82525050565b60006020820190506109c560008301846109a1565b92915050565b600081519050919050565b600082825260208201905092915050565b6000819050602082019050919050565b6000610a028261096f565b9050919050565b610a12816109f7565b82525050565b600081519050919050565b600082825260208201905092915050565b60005b83811015610a52578082015181840152602081019050610a37565b60008484015250505050565b6000610a6982610a18565b610a738185610a23565b9350610a83818560208601610a34565b610a8c816107bb565b840191505092915050565b610aa081610769565b82525050565b600060a083016000830151610abe6000860182610a09565b5060208301518482036020860152610ad68282610a5e565b91505060408301518482036040860152610af08282610a5e565b9150506060830151610b056060860182610a97565b506080830151610b186080860182610a97565b508091505092915050565b6000610b2f8383610aa6565b905092915050565b6000602082019050919050565b6000610b4f826109cb565b610b5981856109d6565b935083602082028501610b6b856109e7565b8060005b85811015610ba75784840389528151610b888582610b23565b9450610b9383610b37565b925060208a01995050600181019050610b6f565b50829750879550505050505092915050565b60006020820190508181036000830152610bd38184610b44565b905092915050565b600082825260208201905092915050565b7f596f7520617265206e6f7420746865206f776e65720000000000000000000000600082015250565b6000610c22601583610bdb565b9150610c2d82610bec565b602082019050919050565b60006020820190508181036000830152610c5181610c15565b9050919050565b7f596f7520646f6e2774206861766520656e6f7567682045544800000000000000600082015250565b6000610c8e601983610bdb565b9150610c9982610c58565b602082019050919050565b60006020820190508181036000830152610cbd81610c81565b9050919050565b7f4e487b7100000000000000000000000000000000000000000000000000000000600052602260045260246000fd5b60006002820490506001821680610d0b57607f821691505b602082108103610d1e57610d1d610cc4565b5b50919050565b60008190508160005260206000209050919050565b60006020601f8301049050919050565b600082821b905092915050565b600060088302610d867fffffffffffffffffffffffffffffffffffffffffffffffffffffffffffffffff82610d49565b610d908683610d49565b95508019841693508086168417925050509392505050565b6000819050919050565b6000610dcd610dc8610dc384610769565b610da8565b610769565b9050919050565b6000819050919050565b610de783610db2565b610dfb610df382610dd4565b848454610d56565b825550505050565b600090565b610e10610e03565b610e1b818484610dde565b505050565b5b81811015610e3f57610e34600082610e08565b600181019050610e21565b5050565b601f821115610e8457610e5581610d24565b610e5e84610d39565b81016020851015610e6d578190505b610e81610e7985610d39565b830182610e20565b50505b505050565b600082821c905092915050565b6000610ea760001984600802610e89565b1980831691505092915050565b6000610ec08383610e96565b9150826002028217905092915050565b610ed982610a18565b67ffffffffffffffff811115610ef257610ef16107cc565b5b610efc8254610cf3565b610f07828285610e43565b600060209050601f831160018114610f3a5760008415610f28578287015190505b610f328582610eb4565b865550610f9a565b601f198416610f4886610d24565b60005b82811015610f7057848901518255600182019150602085019450602081019050610f4b565b86831015610f8d5784890151610f89601f891682610e96565b8355505b6001600288020188555050505b505050505050565b7f596f7520646f6e2774206861766520616e792062616c616e6365000000000000600082015250565b6000610fd8601a83610bdb565b9150610fe382610fa2565b602082019050919050565b6000602082019050818103600083015261100781610fcb565b9050919050565b600081905092915050565b50565b600061102960008361100e565b915061103482611019565b600082019050919050565b600061104a8261101c565b9150819050919050565b7f4661696c656420746f2077697468647261770000000000000000000000000000600082015250565b600061108a601283610bdb565b915061109582611054565b602082019050919050565b600060208201905081810360008301526110b98161107d565b9050919050565b60006110cb82610a18565b6110d58185610bdb565b93506110e5818560208601610a34565b6110ee816107bb565b840191505092915050565b6000602082019050818103600083015261111381846110c0565b90509291505056fea26469706673582212204173000aa2e1faaaf7d08f7add21e8182e891c4accf3aa2c2944092cb3bbb44864736f6c634300081100334920616d206120736d61727420636f6e74726163742e20506c6561736520627579206d65206120636f6666656521",
  "linkReferences": {},
  "deployedLinkReferences": {}
}