{
  "_format": "hh-sol-artifact-1",
  "contractName": "BuyCoffee",
  "sourceName": "contracts/BuyCoffee.sol",
  "abi": [
    {
      "inputs": [
        {
          "internalType": "address",
          "name": "author_wallet_address",
          "type": "address"
        }
      ],
      "name": "author_withdraw",
      "outputs": [],
      "stateMutability": "nonpayable",
      "type": "function"
    },
    {
      "inputs": [
        {
          "internalType": "address",
          "name": "",
          "type": "address"
        }
      ],
      "name": "authors",
      "outputs": [
        {
          "internalType": "address",
          "name": "wallet_address",
          "type": "address"
        },
        {
          "internalType": "uint256",
          "name": "balance",
          "type": "uint256"
        }
      ],
      "stateMutability": "view",
      "type": "function"
    },
    {
      "inputs": [
        {
          "internalType": "address",
          "name": "author_wallet_address",
          "type": "address"
        },
        {
          "internalType": "address",
          "name": "sender_wallet_address",
          "type": "address"
        },
        {
          "internalType": "uint256",
          "name": "amount",
          "type": "uint256"
        },
        {
          "internalType": "uint256",
          "name": "timestamp",
          "type": "uint256"
        },
        {
          "internalType": "string",
          "name": "message",
          "type": "string"
        }
      ],
      "name": "buymeacoffee",
      "outputs": [],
      "stateMutability": "nonpayable",
      "type": "function"
    },
    {
      "inputs": [
        {
          "internalType": "uint256",
          "name": "",
          "type": "uint256"
        }
      ],
      "name": "coffee",
      "outputs": [
        {
          "internalType": "address",
          "name": "author_wallet_address",
          "type": "address"
        },
        {
          "internalType": "address",
          "name": "sender_wallet_address",
          "type": "address"
        },
        {
          "internalType": "uint256",
          "name": "amount",
          "type": "uint256"
        },
        {
          "internalType": "uint256",
          "name": "timestamp",
          "type": "uint256"
        },
        {
          "internalType": "string",
          "name": "message",
          "type": "string"
        }
      ],
      "stateMutability": "view",
      "type": "function"
    },
    {
      "inputs": [],
      "name": "getContractBalance",
      "outputs": [
        {
          "internalType": "uint256",
          "name": "",
          "type": "uint256"
        }
      ],
      "stateMutability": "view",
      "type": "function"
    },
    {
      "inputs": [],
      "name": "total_contract_balance",
      "outputs": [
        {
          "internalType": "uint256",
          "name": "",
          "type": "uint256"
        }
      ],
      "stateMutability": "view",
      "type": "function"
    }
  ],
  "bytecode": "0x608060405234801561001057600080fd5b50610de6806100206000396000f3fe608060405234801561001057600080fd5b50600436106100625760003560e01c80632f450f55146100675780636f9fb98a14610085578063bf9c5001146100a3578063d8122ed9146100d4578063e0d1e32d146100f0578063edf081c814610124575b600080fd5b61006f610140565b60405161007c91906105a8565b60405180910390f35b61008d610146565b60405161009a91906105a8565b60405180910390f35b6100bd60048036038101906100b89190610635565b610150565b6040516100cb929190610671565b60405180910390f35b6100ee60048036038101906100e9919061080c565b610194565b005b61010a600480360381019061010591906108a3565b610345565b60405161011b95949392919061094f565b60405180910390f35b61013e60048036038101906101399190610635565b610453565b005b60025481565b6000600254905090565b60016020528060005260406000206000915090508060000160009054906101000a900473ffffffffffffffffffffffffffffffffffffffff16908060010154905082565b60006040518060a001604052808773ffffffffffffffffffffffffffffffffffffffff1681526020018673ffffffffffffffffffffffffffffffffffffffff16815260200185815260200184815260200183815250908060018154018082558091505060019003906000526020600020906005020160009091909190915060008201518160000160006101000a81548173ffffffffffffffffffffffffffffffffffffffff021916908373ffffffffffffffffffffffffffffffffffffffff16021790555060208201518160010160006101000a81548173ffffffffffffffffffffffffffffffffffffffff021916908373ffffffffffffffffffffffffffffffffffffffff160217905550604082015181600201556060820151816003015560808201518160040190816102c99190610bb5565b50505082600160008773ffffffffffffffffffffffffffffffffffffffff1673ffffffffffffffffffffffffffffffffffffffff168152602001908152602001600020600101600082825461031e9190610cb6565b9250508190555082600260008282546103379190610cb6565b925050819055505050505050565b6000818154811061035557600080fd5b90600052602060002090600502016000915090508060000160009054906101000a900473ffffffffffffffffffffffffffffffffffffffff16908060010160009054906101000a900473ffffffffffffffffffffffffffffffffffffffff16908060020154908060030154908060040180546103d0906109d8565b80601f01602080910402602001604051908101604052809291908181526020018280546103fc906109d8565b80156104495780601f1061041e57610100808354040283529160200191610449565b820191906000526020600020905b81548152906001019060200180831161042c57829003601f168201915b5050505050905085565b60008190506000600160008473ffffffffffffffffffffffffffffffffffffffff1673ffffffffffffffffffffffffffffffffffffffff168152602001908152602001600020600101549050600081116104e2576040517f08c379a00000000000000000000000000000000000000000000000000000000081526004016104d990610d5c565b60405180910390fd5b6000600160008573ffffffffffffffffffffffffffffffffffffffff1673ffffffffffffffffffffffffffffffffffffffff16815260200190815260200160002060010181905550806002600082825461053c9190610d7c565b925050819055508173ffffffffffffffffffffffffffffffffffffffff166108fc829081150290604051600060405180830381858888f19350505050158015610589573d6000803e3d6000fd5b50505050565b6000819050919050565b6105a28161058f565b82525050565b60006020820190506105bd6000830184610599565b92915050565b6000604051905090565b600080fd5b600080fd5b600073ffffffffffffffffffffffffffffffffffffffff82169050919050565b6000610602826105d7565b9050919050565b610612816105f7565b811461061d57600080fd5b50565b60008135905061062f81610609565b92915050565b60006020828403121561064b5761064a6105cd565b5b600061065984828501610620565b91505092915050565b61066b816105f7565b82525050565b60006040820190506106866000830185610662565b6106936020830184610599565b9392505050565b6106a38161058f565b81146106ae57600080fd5b50565b6000813590506106c08161069a565b92915050565b600080fd5b600080fd5b6000601f19601f8301169050919050565b7f4e487b7100000000000000000000000000000000000000000000000000000000600052604160045260246000fd5b610719826106d0565b810181811067ffffffffffffffff82111715610738576107376106e1565b5b80604052505050565b600061074b6105c3565b90506107578282610710565b919050565b600067ffffffffffffffff821115610777576107766106e1565b5b610780826106d0565b9050602081019050919050565b82818337600083830152505050565b60006107af6107aa8461075c565b610741565b9050828152602081018484840111156107cb576107ca6106cb565b5b6107d684828561078d565b509392505050565b600082601f8301126107f3576107f26106c6565b5b813561080384826020860161079c565b91505092915050565b600080600080600060a08688031215610828576108276105cd565b5b600061083688828901610620565b955050602061084788828901610620565b9450506040610858888289016106b1565b9350506060610869888289016106b1565b925050608086013567ffffffffffffffff81111561088a576108896105d2565b5b610896888289016107de565b9150509295509295909350565b6000602082840312156108b9576108b86105cd565b5b60006108c7848285016106b1565b91505092915050565b600081519050919050565b600082825260208201905092915050565b60005b8381101561090a5780820151818401526020810190506108ef565b60008484015250505050565b6000610921826108d0565b61092b81856108db565b935061093b8185602086016108ec565b610944816106d0565b840191505092915050565b600060a0820190506109646000830188610662565b6109716020830187610662565b61097e6040830186610599565b61098b6060830185610599565b818103608083015261099d8184610916565b90509695505050505050565b7f4e487b7100000000000000000000000000000000000000000000000000000000600052602260045260246000fd5b600060028204905060018216806109f057607f821691505b602082108103610a0357610a026109a9565b5b50919050565b60008190508160005260206000209050919050565b60006020601f8301049050919050565b600082821b905092915050565b600060088302610a6b7fffffffffffffffffffffffffffffffffffffffffffffffffffffffffffffffff82610a2e565b610a758683610a2e565b95508019841693508086168417925050509392505050565b6000819050919050565b6000610ab2610aad610aa88461058f565b610a8d565b61058f565b9050919050565b6000819050919050565b610acc83610a97565b610ae0610ad882610ab9565b848454610a3b565b825550505050565b600090565b610af5610ae8565b610b00818484610ac3565b505050565b5b81811015610b2457610b19600082610aed565b600181019050610b06565b5050565b601f821115610b6957610b3a81610a09565b610b4384610a1e565b81016020851015610b52578190505b610b66610b5e85610a1e565b830182610b05565b50505b505050565b600082821c905092915050565b6000610b8c60001984600802610b6e565b1980831691505092915050565b6000610ba58383610b7b565b9150826002028217905092915050565b610bbe826108d0565b67ffffffffffffffff811115610bd757610bd66106e1565b5b610be182546109d8565b610bec828285610b28565b600060209050601f831160018114610c1f5760008415610c0d578287015190505b610c178582610b99565b865550610c7f565b601f198416610c2d86610a09565b60005b82811015610c5557848901518255600182019150602085019450602081019050610c30565b86831015610c725784890151610c6e601f891682610b7b565b8355505b6001600288020188555050505b505050505050565b7f4e487b7100000000000000000000000000000000000000000000000000000000600052601160045260246000fd5b6000610cc18261058f565b9150610ccc8361058f565b9250828201905080821115610ce457610ce3610c87565b5b92915050565b7f417574686f7220686173206e6f2062616c616e636520746f207769746864726160008201527f7700000000000000000000000000000000000000000000000000000000000000602082015250565b6000610d466021836108db565b9150610d5182610cea565b604082019050919050565b60006020820190508181036000830152610d7581610d39565b9050919050565b6000610d878261058f565b9150610d928361058f565b9250828203905081811115610daa57610da9610c87565b5b9291505056fea264697066735822122073c0d146309048ed16af633bef0a447b222f8a565882ba05935f21123a262cf364736f6c63430008110033",
  "linkReferences": {},
  "deployedLinkReferences": {}
}